S00F00004C4344333238502E7372656355
S11300000C9475000C940F040C9492000C949200C0
S11300100C9492000C9492000C9492000C94920014
S11300200C9492000C9492000C9492000C94920004
S11300300C9492000C9492000C9492000C949200F4
S11300400C9492000C9492000C9492000C949200E4
S11300500C9492000C9492000C9492000C949200D4
S11300600C9492000C94920007634236B79BD8A775
S11300701A39685618AEBAAB558C1D3CB7CC5763C9
S1130080BD6DEDFD753EF6177231BF000000803F77
S113009008000000BE922449123EABAAAA2ABECD93
S11300A0CCCC4C3E00000080BEABAAAAAA3E000005
S11300B00000BF000000803F0000000000084178FD
S11300C0D3BB4387D1133D190E3CC3BD4282AD2B34
S11300D03E68EC8276BED98FE1A93E4C80EFFFBE2C
S11300E001C4FF7F3F000000000011241FBECFEFBA
S11300F0D8E0DEBFCDBF11E0A0E0B1E0EEEFFFE05D
S113010002C005900D92A237B107D9F721E0A2E70A
S1130110B1E001C01D92AB38B207E1F70E94420181
S11301200C94FD070C940000429A85E08A95F1F73F
S1130130000042988FE99FE00197F1F700C00000AA
S11301400895CF93C82F409A80912601883021F4D6
S1130150CBB90E9494000CC08C2F807F8BB90E9475
S1130160940020E1C29FC00111248BB90E94940025
S11301708FE39FE10197F1F700C00000CF9108954C
S1130180CF93C82F409880912601883021F4CBB9B1
S11301900E9494000CC08C2F807F8BB90E94940025
S11301A020E1C29FC00111248BB90E9494008FE307
S11301B09FE10197F1F700C00000CF91089581E01D
S11301C00E94C0008FE39FE10197F1F700C0000097
S11301D008952FEF80E792E0215080409040E1F7AE
S11301E000C0000080912601883019F48FEF8AB98D
S11301F003C08AB1806F8AB91BB887B1876087B999
S1130200419880912601883021F488E30E94C0003F
S113021006C082E00E94C00088E20E94C0008CE018
S11302200E94C0000E94DF0086E00E94C000089582
S11302300F931F93CF93FC018081882359F08F0182
S1130240C0E00E94A100CF5FF801EC0FF11D808196
S11302508111F7CFCF911F910F9108956F70837023
S1130260823030F490E4899F600D1124862F06C0FB
S113027090E4899F600D112480E9860F80580E94C4
S1130280C0000895CF93DF93CDB7DEB728970FB69C
S1130290F894DEBF0FBECDBF0E94E9001092C500E6
S11302A08FEC8093C400E0ECF0E080818260808376
S11302B0E2ECF0E0808186608083E1ECF0E0808114
S11302C088618083209A5A9AE89AE9E6F0E080816E
S11302D082608083789415B80F2EF6EC6F2E712C03
S11302E0F02D22242394312C0F2EF3E04F2EF1E035
S11302F05F2EF02D23E030E0E0ECF0E080818823F5
S1130300DCF7F301808180938A0121503109A1F740
S113031080917601909177010197C9F4FFEF29E666
S113032038E1F15020403040E1F700C00000E0EC3B
S1130330F0E080818823DCF7F301808180938A01D7
S11303408757843058F31092770110927601E0ECCD
S1130350F0E080818823DCF7F301808180938A01B7
S11303608757843008F050C08091760190917701CE
S1130370892B09F049C00E94DF0080918A018837E7
S113038071F018F4873731F034C0893769F08A374F
S1130390F1F02FC087E291E00E9418012AC08FE299
S11303A091E00E94180125C087E391E00E941801A2
S11303B080917801909179018C599F4F90937901A4
S11303C080937801309277012092760112C08FE3F6
S11303D091E00E94180180917801909179018853ED
S11303E09F4F909379018093780130927701209206
S11303F07601FFEF23ED30E3F15020403040E1F788
S113040000C000000E94DF0080918A01833261F401
S11304102091740130917501232B09F079CF30922A
S11304207501209274010FC0843209F071CF2091BC
S11304307401309175012130310509F069CF1092B2
S113044075011092740190E07C0141E2E41AF10814
S1130450C701880F991F880F991F880F991F8E193C
S11304609F09FC01E45FFE4F5F0100E010E0C7015B
S1130470880F991F9C0122583E4F6901E0ECF0E07F
S113048080818823DCF7F301908090928A01F50142
S113049091925F01B801F3E06F27072E000C880BDF
S11304A0990B0E940D059B01AC0160E070E080E2B5
S11304B091E40E94060669837A838B839C83980166
S11304C02D5F3F4FC90199230CF4039695958795A9
S11304D095958795F60120813181829FB001839F94
S11304E0700D929F700D1124072E000C880B990B30
S11304F00E940D056D837E838F839887692D70E03C
S113050060537109072E000C880B990B0E940D058E
S113051029813A814B815C810E9499059B01AC0140
S11305206D817E818F8198850E9469040E94D50423
S1130530F601718360830F5F1F4F0430110509F0CA
S11305409DCFC70181709078992324F401978E6F11
S11305509F6F0196682F660F660F660FC701FF2015
S11305600CF40196959587950E942E01C701880F7A
S1130570991F880F991F880F991F8E199F09865FED
S11305809E4F0E94180160E082E00E942E0187E4E1
S113059091E00E94180168E082E00E942E0110920E
S11305A08901109288018091780190917901883EA7
S11305B0F3E09F077CF020E030E02F5F3F4F885E40
S11305C09340883E43E09407C4F730938901209315
S11305D0880102C020E030E0205DF20120838FE337
S11305E09CE90197F1F700C0000010927D01109280
S11305F07C018091880190918901E8E1FCEF8E9F54
S113060090018F9F300D9E9F300D112480917801B1
S113061090917901820F931F8436910574F020E044
S113062030E02F5F3F4F8456910984369105CCF713
S113063030937D0120937C0102C020E030E0205DF6
S1130640F20121838FE39CE90197F1F700C00000D8
S113065010928701109286018091880190918901FE
S1130660E8E1FCEF8E9F90018F9F300D9E9F300D2F
S113067011248091780190917901280F391F4091BC
S11306807C0150917D016CE96403C001659F900D6C
S11306901124820F931F8A3091056CF020E030E022
S11306A02F5F3F4F0A978A309105D4F73093870123
S11306B02093860102C020E030E0205DF201228315
S11306C08FE39CE90197F1F700C00000E8E8F1E04E
S11306D09081E8E7F1E08081805DF8E19F9F800DE3
S11306E01124ECE7F1E09081F4E69F9F8019112436
S11306F090918601990F292F220F220F920F891BA7
S1130700F20183838FE39CE90197F1F700C00000B5
S1130710C2010E94180160E083E00E942E018FE470
S113072091E00E94180168E083E00E942E0110927B
S113073087011092860180910801909109018A3005
S113074091056CF020E030E02F5F3F4F0A978A302C
S11307509105D4F7309387012093860102C020E0ED
S113076030E0E0E0F1E0205D20838FE39CE9019735
S1130770F1F700C0000080910801805D909186012E
S1130780990F292F220F220F920F891B8183EFE3E8
S1130790FCE93197F1F700C0000080E091E00E948D
S11307A018018091080190910901181619062CF17D
S11307B060E080E00E942E0187E591E00E9418012C
S11307C060E081E00E942E0182E691E00E9418011F
S11307D0FFEF23E234EFF15020403040E1F700C056
S11307E000000E94DF00109279011092780184E1E8
S11307F090E090930901809308014FEF57EE83E056
S1130800415050408040E1F700C0000073CD16BC59
S113081085E085BDA89BFECF15BCA89A08951F92BC
S11308200F920FB60F9211242F933F934F935F9320
S11308306F937F938F939F93AF93BF93EF93FF93A4
S113084010927B0110927A01809172019091730150
S1130850892B81F48091080190910901019790936B
S113086009018093080181E090E0909373018093E3
S1130870720104C01092730110927201289A80913F
S11308807A0190917B010A978CF40E94070480916D
S11308907A0190917B01019690937B0180937A0178
S11308A080917A0190917B010A977CF32898FF91BB
S11308B0EF91BF91AF919F918F917F916F915F91D4
S11308C04F913F912F910F900FBE0F901F9018954D
S11308D05058BB27AA270E9480040C945F050E94ED
S11308E0510538F00E94580520F039F49F3F19F45F
S11308F026F40C944E050EF4E095E7FB0C944805A1
S1130900E92F0E94700558F3BA176207730784072A
S1130910950720F079F4A6F50C9492050EF4E09571
S11309200B2EBA2FA02D0B01B90190010C01CA01A5
S1130930A0011124FF27591B99F0593F50F4503E50
S113094068F11A16F040A22F232F342F4427585F42
S1130950F3CF469537952795A795F0405395C9F75A
S11309607EF41F16BA0B620B730B840BBAF0915012
S1130970A1F0FF0FBB1F661F771F881FC2F70EC0B1
S1130980BA0F621F731F841F48F487957795679584
S1130990B795F7959E3F08F0B0CF9395880F08F070
S11309A09927EE0F9795879508950E94DC04689423
S11309B0B1110C94930508950E94780588F09F570F
S11309C098F0B92F9927B751B0F0E1F0660F771F6F
S11309D0881F991F1AF0BA95C9F714C0B13091F065
S11309E00E949205B1E008950C949205672F782F28
S11309F08827B85F39F0B93FCCF38695779567952A
S1130A00B395D9F73EF490958095709561957F4F95
S1130A108F4F9F4F0895E89409C097FB3EF490953B
S1130A208095709561957F4F8F4F9F4F9923A9F0C3
S1130A30F92F96E9BB279395F69587957795679552
S1130A40B795F111F8CFFAF4BB0F11F460FF1BC096
S1130A506F5F7F4F8F4F9F4F16C0882311F096E929
S1130A6011C0772321F09EE8872F762F05C06623D7
S1130A7071F096E8862F70E060E02AF09A95660F90
S1130A80771F881FDAF7880F9695879597F9089549
S1130A9097F99F6780E870E060E008959FEF80EC2D
S1130AA0089500240A9416161706180609060895D0
S1130AB000240A9412161306140605060895092E36
S1130AC00394000C11F4882352F0BB0F40F4BF2BA5
S1130AD011F460FF04C06F5F7F4F8F4F9F4F0895E5
S1130AE057FD9058440F551F59F05F3F71F04795DB
S1130AF0880F97FB991F61F09F3F79F087950895C0
S1130B00121613061406551FF2CF4695F1DF08C0DE
S1130B10161617061806991FF1CF869571056105FB
S1130B2008940895E894BB2766277727CB0197F9A3
S1130B3008950E94AC050C945F050E94510538F09D
S1130B400E94580520F0952311F00C9448050C944C
S1130B504E0511240C9493050E94700570F3959F23
S1130B60C1F3950F50E0551F629FF001729FBB27A0
S1130B70F00DB11D639FAA27F00DB11DAA1F649F3C
S1130B806627B00DA11D661F829F2227B00DA11DEF
S1130B90621F739FB00DA11D621F839FA00D611D75
S1130BA0221F749F3327A00D611D231F849F600D96
S1130BB0211D822F762F6A2F11249F5750409AF0BF
S1130BC0F1F088234AF0EE0FFF1FBB1F661F771F4B
S1130BD0881F91505040A9F79E3F510580F00C9416
S1130BE048050C9493055F3FE4F3983ED4F386954F
S1130BF077956795B795F795E7959F5FC1F7FE2BB6
S1130C00880F911D9695879597F90895FA01EE0F2F
S1130C10FF1F309621053105A1F16115710561F4BD
S1130C208038BFE39B0749F168949038810561F0EF
S1130C308038BFEF9B0741F099234AF5FF3FE10558
S1130C403105210519F1E8940894E795D901AA23FF
S1130C5029F4AB2FBE2FF85FD0F310C0FF5F70F400
S1130C60A695E0F7F73950F019F0FF3A38F49F777A
S1130C709F930DD00F9007FC9058089546F00C9464
S1130C804E0560E070E080E89FE308954FE79F77AA
S1130C905F934F933F932F930E9401072F913F91AE
S1130CA04F915F910E9499050C945E0629F416F009
S1130CB00C9448050C9492050C944E050E947805FA
S1130CC0A8F39638A0F707F80F92E8942BE33AEAD2
S1130CD048EB5FE70E94AF050F920F920F924DB75A
S1130CE05EB70F920E944907E8E6F0E00E94900682
S1130CF04F915F91EF91FF91E595EE1FFF1F49F032
S1130D00FE57E0684427EE0F441FFA95E1F741953A
S1130D10550B0E94C3060F9007FE0C94B706089566
S1130D20DF93CF931F930F93FF92EF92DF927B0198
S1130D308C01689406C0DA2EEF010E94AC05FE0116
S1130D40E894A5912591359145915591A6F3EF012C
S1130D500E948004FE019701A801DA9469F7DF90EC
S1130D60EF90FF900F911F91CF91DF9108959B0118
S1130D70AC0160E070E080E89FE30C947D070C9484
S1130D8048050C94EF070E947805D8F39923C9F31A
S1130D90940F511DA3F39150504094F059F08823BF
S1130DA032F0660F771F881F91505040C1F79E3F65
S1130DB051052CF7880F911D9695879597F90895FD
S1130DC05F3FACF0983E9CF0BB278695779567957E
S1130DD0B79508F4B1609395C1F7BB0F58F711F4B8
S1130DE060FFE8CF6F5F7F4F8F4F9F4FE3CF0C942F
S1130DF0930516F00C94EF070C944E0568940C942C
S1130E0048050E947805A8F39923C1F3AEF3DF9354
S1130E10CF931F930F93FF92C92FDD2788232AF0C6
S1130E202197660F771F881FDAF720E030E040E84B
S1130E305FEB9FE3883920F0803E38F021968F776E
S1130E400E946904E0E9F0E004C00E946904EDEB4B
S1130E50F0E00E9490068B01BE01EC01FB2E6F575F
S1130E6071097595771F880B990B0E940D0528E170
S1130E7032E741E35FE30E94AC05AF2D9801AE0178
S1130E80FF900F911F91CF91DF910E9480040C94E9
S1130E905F05FA01DC01AA0FBB1F9B01AC01BF5720
S1130EA028F4222733274427507820C0B75190F4E0
S1130EB0AB2F0024469537952795011CA395D2F3B3
S1130EC0002071F0220F331F441FB395DAF30ED0C4
S1130ED00C94680461307105A0E88A07B94630F4BF
S1130EE09B01AC016627772788279078309621F0FC
S1130EF0208331834283538308950E9491070C9485
S1130F005F050E94580558F00E94510540F029F4ED
S1130F105F3F29F00C94480551110C9493050C94EF
S1130F204E050E94700568F39923B1F3552391F39C
S1130F30951B550BBB27AA2762177307840738F044
S1130F409F5F5F4F220F331F441FAA1FA9F335D0A1
S1130F500E2E3AF0E0E832D091505040E695001C55
S1130F60CAF72BD0FE2F29D0660F771F881FBB1F0F
S1130F70261737074807AB07B0E809F0BB0B802DED
S1130F80BF01FF2793585F4F3AF09E3F510578F019
S1130F900C9448050C9493055F3FE4F3983ED4F316
S1130FA0869577956795B795F7959F5FC9F7880FED
S1130FB0911D9695879597F90895E1E0660F771F3F
S1130FC0881FBB1F621773078407BA0720F0621BD0
S1130FD0730B840BBA0BEE1F88F7E09508959F3FBF
S1130FE031F0915020F4879577956795B795880FE0
S1110FF0911D9695879597F90895F894FFCF73
S1130FFE61620061626364001400313A6162636489
S113100E00323A6162636400333A616263640034AD
S113101E3A616263640004313A20486974210032F3
S113102E3A204869742100333A2048697421003407
S113103E3A20486974210053636F72653A20005355
S113104E686F74733A200047616D65204F76657240
S113105E2100526574727920696E203520736563A0
S105106E00007C
S9030000FC
